:020000040800F2
:1000000080B70020D5010008653400087515000888
:1000100061340008850900087756000800000000D8
:10002000000000000000000000000000794F000800
:10003000B10F000800000000ED3400083152000844
:10004000EF010008EF010008EF010008EF010008D0
:10005000EF010008EF010008EF010008EF010008C0
:10006000EF010008EF010008EF010008EF010008B0
:10007000EF010008EF010008EF010008EF010008A0
:10008000EF010008EF010008EF010008EF01000890
:10009000EF010008EF010008EF010008EF01000880
:1000A000EF010008EF010008EF010008EF01000870
:1000B000EF010008EF010008EF010008EF01000860
:1000C000EF010008EF010008EF010008EF01000850
:1000D000EF01000855530008EF010008EF01000888
:1000E000EF010008EF010008EF010008EF01000830
:1000F000EF010008EF010008EF010008EF01000820
:10010000EF010008A5370008EF010008EF01000823
:10011000EF010008EF010008EF010008EF010008FF
:10012000EF010008EF010008EF010008EF010008EF
:1001300000F002F800F03FF80AA090E8000C8244BA
:100140008344AAF10107DA4501D100F034F8AFF297
:10015000090EBAE80F0013F0010F18BFFB1A43F0A5
:10016000010318476884000088840000103A24BF07
:1001700078C878C1FAD8520724BF30C830C144BF0C
:1001800004680C607047000000230024002500264E
:10019000103A28BF78C1FBD8520728BF30C148BFEA
:1001A0000B607047642900F09580002070471FB5F0
:1001B0001FBD10B510BD00F0B8FA1146FFF7F7FFEC
:1001C00006F028FF00F0D6FA03B4FFF7F2FF03BCF5
:1001D00000F0DEFA0948804709480047FEE7FEE7DD
:1001E000FEE7FEE7FEE7FEE7FEE7FEE7FEE7FEE7E7
:1001F00004480549054A064B70470000355200087F
:100200003101000880B1002080B7002080B30020B9
:1002100080B3002010B54C1084EA530404D540424A
:10022000C1F1000138BF491E1B4204D55242C3F13F
:10023000000338BF5B1E00F058F914F0804F04D063
:100240004042C1F1000138BF491E14F0004F04D0F4
:100250005242C3F1000338BF5B1E10BD0FB41CB582
:10026000074B06AA7B4469460090059800F013FAF4
:100270000020694600F022FA1CBC5DF814FB000067
:100280005504000070B5044685690068C10601D5B3
:10029000302600E02026C00707D070BDD4E9012138
:1002A00030469047206A401C20626D1EF6D570BD16
:1002B00070B5044685690078C00707D170BDD4E9E0
:1002C000012120209047206A401C20626D1EF6D537
:1002D00070BD00002DE9F041064600241068752924
:1002E000314616A510D0AFF30080002802DA404254
:1002F00013A507E031688A0701D512A502E0490776
:1003000004D511A5012401E0AFF3008000210A22E9
:1003100006F1240709E0B0FBF2FCB0FBF2F302FBAC
:100320001C00303078541846491C0028F3D123466D
:100330002A463046BDE8F04100F04EB9000000000A
:100340002D0000002B000000200000002DE9F047E8
:100350004FF0000A89460446C0F820A02046E16814
:100360008847002876D0252806D0D4E90121904777
:10037000206A401C2062F1E7E1682046002588479A
:10038000C4F81CA006460027C4F818A02A2E09D0DD
:10039000304605F072F938B304EB8708303EC8F8F0
:1003A000186019E059F8041B204604EB870291619C
:1003B000E1688847012F064618D1E069002820DA55
:1003C00025F020051DE0D8F8180000EB800006EBB2
:1003D00040003038C8F818002046E16888470646D3
:1003E00005F04BF90028EED1012F0AD02E2E08D1AE
:1003F0002046E16888477F1C0646022F45F020050D
:10040000C4DBA069002803DA404245F00105A06181
:10041000E80701D025F01005B6B1A6F14100192872
:1004200002D8203645F400654A463146204625600C
:100430004D46FFF7B7FE58B1012806D0ED1D25F057
:10044000070000F1080989E704E005F1040985E7E0
:1004500030468AE7206ABDE8F087032A40F2308000
:1004600010F0030C00F0158011F8013BBCF1020FF5
:10047000624498BF11F801CB00F8013B38BF11F876
:10048000013BA2F1040298BF00F801CB38BF00F88D
:10049000013B11F0030300F01681083AC0F0088018
:1004A00051F8043B083A51F804CBA0E80810F5E7EE
:1004B000121D5CBF51F8043B40F8043BAFF30080D1
:1004C000D20724BF11F8013B11F801CB48BF11F846
:1004D000012B24BF00F8013B00F801CB48BF00F816
:1004E000012B704770477047704753EA020C00F0C9
:1004F00069802DE9F04B4FF00006002B1FBFB3FAC7
:1005000083F503FA05F424FA05F65E4012BF16439C
:10051000B2FA82F502FA05F4C5F120051EBF22FAEF
:1005200005FC44EA0C04203556EA044C4FEA144416
:1005300018BF641C4FF000084FF00009904271EBA7
:10054000030C39D3002919BFB1FA81F701FA07F674
:10055000B0FA80F700FA07F6C7F120071EBF20FAAD
:1005600007FC46EA0C062037B6FBF4FCA7EB0507B0
:10057000103F07F01F0BCBF120060CFA0BFB2CFAF7
:1005800006F644BFB3460026202FA4BF5E464FF0B8
:10059000000B5BEA060C08BF4FF0010B19EB0B09CF
:1005A000ABFB027C48EB0608C01B06FB02CC0BFB36
:1005B00003CC71EB0C01C1E70B46024641464846AD
:1005C000BDE8F08B13B54FF000004FF00001AFF322
:1005D0000080BDE81C4070472DE9F0470D46994664
:1005E0009246044600F124080168880604D5E069B3
:1005F00021F01001216000E00120A84201DD471B2D
:1006000000E00027A1697A1902EB0900081AA0612D
:100610002078C00602D42046FFF734FE002608E00A
:10062000D4E901211AF806009047206A401C761C84
:1006300020624E45F4DB2078C0060AD52046FFF73D
:1006400021FE06E0D4E9012130209047206A401CB9
:100650002062381EA7F10107F4DC07E0D4E901218C
:1006600018F805009047206A401C2062281EA5F15A
:100670000105F3DC2046FFF71BFE2078000602D5BB
:100680000220BDE8F0870120FBE7000001694A1C59
:1006900002610878704700B58FB0CDE901310021C3
:1006A000059105497944CDE9031011466846FFF7E5
:1006B0004DFE0FB000BD0000E5FFFFFF0A6802F825
:1006C000010B0A60704710B5203AC0F00B80B1E80A
:1006D0001850203AA0E81850B1E81850A0E8185077
:1006E000BFF4F5AF5FEA027C24BFB1E81850A0E880
:1006F000185044BF18C918C0BDE810405FEA827C9A
:1007000024BF51F8043B40F8043B08BF7047D207B0
:1007100028BF31F8023B48BF11F8012B28BF20F851
:10072000023B48BF00F8012B7047754600F02CF8DB
:10073000AE4605006946534620F00700854618B0CE
:1007400020B5FFF755FDBDE820404FF000064FF003
:1007500000074FF000084FF0000B21F00701AC46F6
:10076000ACE8C009ACE8C009ACE8C009ACE8C00915
:100770008D46704710B50446AFF300802046BDE8B3
:100780001040FFF721BD00000048704720B1002055
:1007900001491820ABBEFEE72600020070470000AA
:1007A00008B548208DF8030003208DF802002020B2
:1007B000ADF800006946124800F08AFD402110485B
:1007C00000F01CFE00F0F5FB20210D4800F00BFEB0
:1007D000012802D10B49086002E0002009490860A5
:1007E0004021074800F008FE00F0E3FB10208DF8E0
:1007F00003006946024800F06BFD0248006808BD2E
:10080000000C014030000020F8B5002448208DF88D
:1008100003002020ADF8000003208DF80200694697
:10082000164800F055FD2021144800F0E7FD002592
:1008300019E06006040E4021104800F0DFFD00F0D2
:10084000B8FB20210D4800F0CEFD012801D1012682
:1008500000E0002634434021084800F0CDFD00F0C0
:10086000A8FB681CC5B2082DE3DB10208DF803003F
:100870006946024800F02CFD2046F8BD000C0140FE
:1008800038B5044610208DF8030003208DF80200CF
:100890002020ADF8000069460F4800F019FD012C3A
:1008A00004D120210C4800F0A9FD06E024B9202144
:1008B000094800F0A1FD00E038BD4021064800F0E5
:1008C0009DFD00F076FB4021034800F095FD00F00F
:1008D00070FB00BFF0E70000000C014070B504465B
:1008E00000251BE004F0800020B120210E4800F01C
:1008F00085FD03E020210C4800F07EFD6006040E1B
:100900004021094800F07AFD00F053FB40210648E1
:1009100000F072FD00F04DFB681CC5B2082DE1DB54
:10092000FFF73EFF70BD0000000C014010B5202114
:10093000094800F063FD4021074800F05FFD00F02A
:1009400038FB2021044800F057FD00F032FB402125
:10095000014800F051FD10BD000C014010B52021F0
:10096000074800F049FD4021054800F047FD00F030
:1009700020FB2021024800F041FD00F01AFB10BDD1
:10098000000C014000BFFEE770B500254FF4803435
:1009900004E0802002F0F2FE00B103E0201EA4F18A
:1009A0000104F6D100BF0CB9032070BD40F2FF5026
:1009B00002F09EFE2846F8E770B5044605E01548AB
:1009C000456B05F0450000B100E0F8E700BF0420EA
:1009D00002F0D4FE20B1042002F08AFE032070BD94
:1009E000012002F0CBFE20B1012002F081FE0120A7
:1009F000F5E708480069A04201D01020EFE740F277
:100A0000FF50044988630846406908210840C0B285
:100A1000E5E700000080014070B500264FF4803506
:100A200005E01148446B04F0450000B103E0281EC6
:100A3000A5F10105F5D100BF15B104F0040028B1FE
:100A40000326042002F054FE304670BD012002F05F
:100A500095FE18B10126012002F04AFE40F2FF5037
:100A600002F046FE3046F0E70080014010B505E098
:100A70000B48446B04F0450000B100E0F8E700BF0C
:100A8000042002F07BFE20B1042002F031FE03209E
:100A900010BD40F2FF5002F02BFE0020F8E70000EE
:100AA000008001402DE9F04105460E464FF0000858
:100AB00005E01F48476B07F0450000B100E0F8E78C
:100AC00000BF042002F05AFE28B1042002F010FEFC
:100AD0000320BDE8F081012002F050FE20B101208A
:100AE00002F006FE0120F4E711480069A84201D097
:100AF0001020EEE740F2FF5002F0FAFD0C48446986
:100B000004F4604018B9200C30804046E1E704F45A
:100B1000005008B11320DCE704F4804008B1102035
:100B2000D7E704F4004008B10F20D2E74046D0E7F1
:100B30000080014070B500264FF4803505E00F4875
:100B4000446B04F0450000B103E0281EA5F1010547
:100B5000F5D100BF15B104F0040028B1032604202C
:100B600002F0C6FD304670BD04F0400018B100260A
:100B7000402002F0BDFD3046F5E700000080014056
:100B800021B1026842F00102026004E002684FF6FF
:100B9000FE731A400260704701684FF6FE72114002
:100BA00001600021016041608160C1604B49884261
:100BB00008D14A490839496841F00F01474A083AC3
:100BC00051608AE045491431884208D143490839C7
:100BD000496841F0F001414A083A51607DE03F49DF
:100BE0002831884208D13D490839496841F470618B
:100BF0003A4A083A516070E038493C31884208D19D
:100C000036490839496841F47041344A083A51601C
:100C100063E032495031884208D130490839496887
:100C200041F470212D4A083A516056E02B49643155
:100C3000884208D129490839496841F47001274A96
:100C4000083A516049E025497831884208D1234962
:100C50000839496841F07061204A083A51603CE027
:100C60001F49884206D1011F096841F00F01021F88
:100C7000116032E01A491431884208D11849091F1D
:100C8000096841F0F001164A121F116025E014496D
:100C90002831884208D11249091F096841F470615E
:100CA0000F4A121F116018E00D493C31884208D1EB
:100CB0000B49091F096841F47041094A121F11606C
:100CC0000BE007495031884207D10549091F0968DF
:100CD00041F47021024A121F11607047080002405F
:100CE0000804024010B50022026847F6F0739A43E8
:100CF0000C6A8B6823430C6923434C6923438C693A
:100D00002343CC6923434C6A23438C6A23431A430D
:100D10000260CB6843600B6883604B68C36010BDA2
:100D200010B500241548406820F47040134948600D
:100D30000846406840F40040486004E0601CC4B2CB
:100D4000012004F033FF0E48006808B1C82CF5DB21
:100D5000C82C01DB012010BD002404E0601CC4B2DB
:100D6000012004F023FF0648006808B9F02CF5DBE9
:100D7000F02C01DB0120EEE70020ECE70020014031
:100D80002C0124422DE9F84F00F0CCF800F0A8F82F
:100D9000FFF7C6FFCC2000F0D1F8BE2000F0CEF85F
:100DA00000F08CF8834600F089F80446072C08DD33
:100DB000E043C4B26FEA0B0000F0FF0B4FF0000AF3
:100DC00001E04FF0010AA1464FEA09200FFA80F92D
:100DD00009EB0B000FFA80F9484606F03DFE009043
:100DE00006F00EFE07460022084B06F00BFD0546F6
:100DF00006F0D8FC0FFA80F9BAF1000F02D048468D
:100E0000BDE8F88FC9F1000000B2F9E70000E43F47
:100E100008B50121080202F08BFB4FF40060ADF829
:100E2000000010208DF8030003208DF802006946B1
:100E3000064800F04DFA4FF40061044800F0DEFA75
:100E400000F04EF8FFF76CFF08BD000000200140E5
:100E500010B51748406820F47040154948600846AE
:100E6000406840F440504860002012490860022069
:100E700004F09CFE01201049C1F8AC010C48406808
:100E800020F470400A4948600846406840F4004039
:100E900048600C2004F08AFE06488038006808B1DB
:100EA000012400E00024322004F080FE204610BD22
:100EB00000200140AC0124420000244270B500260D
:100EC000012508E0FFF7C4FF0446E00140EA6600A0
:100ED000C6B2681CC5B2082DF4DD304670BD0000F6
:100EE00010B50D48406820F470400B494860084632
:100EF000406840F44050486000200849086040F2D3
:100F0000EE2004F053FE01200549C1F8AC010F208A
:100F100004F04CFE10BD000000200140AC01244252
:100F20000000244210B5FFF7DBFFFFF7F9FECC20ED
:100F300000F004F8442000F001F810BD70B504463C
:100F40001848406820F470401649486008464068D8
:100F500040F440504860012520E004F00106641090
:100F60006EB1002010490860022004F01FFE01202D
:100F70000E49C1F8AC013C2004F018FE0CE0002042
:100F8000094908603C2004F011FE01200749C1F81E
:100F9000AC01022004F00AFE681CC5B2082DDCDD9D
:100FA00070BD000000200140AC012442000024423A
:100FB00070470021052006E00A2100BF0A1EA1F1AA
:100FC000010399B2FAD1021EA0F1010398B2F3D144
:100FD0007047002107E042F6E06100BF0A1EA1F160
:100FE000010399B2FAD1021EA0F1010398B2F2D125
:100FF0007047000051B18200A2F1C042126842F075
:1010000001038200A2F1C042136009E08200A2F154
:10101000C0421268034B1A408300A3F1C0431A6018
:1010200070470000FEFF0F00D0E901121143C268B3
:101030001143026911434269114382691143C26934
:101040001143026A1143426A1143826A1143C26A20
:101050001143026B114302689200A2F1C042116079
:10106000816808290BD101688900A1F1C041096894
:1010700041F0400201688900A1F1C0410A60416B62
:101080000968426B526841EA0211426B926841EA78
:101090000221426B928941EA0241426B128A41EA83
:1010A0000251426B127D41EA0261426B9269114327
:1010B0000268521C9200A2F1C0421160C16AB1F5EF
:1010C000804F1BD1816B0968826B526841EA021123
:1010D000826B926841EA0221826B128A41EA0251D4
:1010E000826B127D41EA0261826B92691143026850
:1010F0009200A2F1C042C2F8041107E06FF0704202
:1011000001688900A1F1C041C1F8042170470000C5
:101110002DE9FC4107460D460026002400200090E2
:10112000019008205B4908601020486040208860DA
:101130000020C8604FF480600861084602F054FB4C
:101140001020FFF739FC044614B12046BDE8FC81AD
:101150005148008800044F4908603720486040200B
:1011600088600020C8604FF480600861084602F083
:101170003BFB3720FFF720FC04460CB12046E5E797
:101180004FF0FF30454908600820486030208860F3
:101190000220C8600020086101204861084602F072
:1011A000C3FA00203B490860332048604020886033
:1011B0000020C8604FF480600861084602F014FB0C
:1011C0003320FFF7F9FB04460CB12046BEE70CE0E4
:1011D0004FF4001002F0D2FA38B102F0FFFA4DF8E5
:1011E0002600761C022E00D306E02D48406B40F20C
:1011F0002A6108400028EBD000BF082002F0BEFAA8
:1012000020B1082002F074FA04209FE7022002F0C7
:10121000B5FA20B1022002F06BFA022096E72020F6
:1012200002F0ACFA20B1202002F062FA06208DE72D
:101230004FF4007002F0A2FA28B14FF4007002F0EF
:1012400057FA072082E740F2FF5002F051FA009867
:101250000006009901F47F4140EA0120009901F461
:101260007F0140EA1120009940EA1160686001980E
:101270000006019901F47F4140EA0120019901F43F
:101280007F0140EA1120019940EA11602860204660
:101290005CE70000400300206400002054030020AD
:1012A0000080014008B50121082002F041F910201A
:1012B0008DF8030003208DF802006020ADF80000D7
:1012C0006946024800F004F808BD0000000C014027
:1012D0002DE9F041024600250026002000230024CD
:1012E000002791F803C00CF00F0591F803C00CF033
:1012F000100CBCF1000F03D091F802C04CEA0505B8
:1013000091F800C0BCF1000F31D0146800202BE030
:101310004FF0010C0CFA00F3B1F800C00CEA030620
:101320009E4220D183004FF00F0C0CFA03F7BC4310
:1013300005FA03FC4CEA040491F803C0BCF1280F41
:1013400006D14FF0010C0CFA00FCC2F814C00AE000
:1013500091F803C0BCF1480F05D14FF0010C0CFA15
:1013600000FCC2F810C0401C0828D1D31460B1F8AA
:1013700000C0BCF1FF0F34DD546800202EE000F106
:10138000080C4FF0010808FA0CF3B1F800C00CEAA1
:1013900003069E4221D183004FF00F0C0CFA03F795
:1013A000BC4305FA03FC4CEA040491F803C0BCF109
:1013B000280F05D100F1080C08FA0CF8C2F81480C7
:1013C00091F803C0BCF1480F07D100F1080C4FF0B1
:1013D000010808FA0CF8C2F81080401C0828CED387
:1013E0005460BDE8F0810246002093680B400BB1C9
:1013F000012000E0002070474161704701617047A3
:101400002DE9F05F8046894614462046E21704EB3A
:101410005272D2102146E31704EB5373DB10A4EB96
:10142000C3030BB1012300E000231A446243D7B287
:1014300098F8006008F1010080460578812E05DBF0
:10144000402D03DBFF2D01D0FF2E0DD14FF0000A00
:1014500006E0002009F8010B0AF1010000F0FF0A84
:10146000BA45F6DBBDE8F09F7F2D03DAA5F1400019
:10147000C5B202E0A5F14100C5B2A6F18100C6B235
:10148000BE2000FB065000FB07FB0C2C04D0102CE8
:1014900016D0182C3CD127E001221FA1254805F0C9
:1014A00053F860B95946234804F0CAFE224B3A4625
:1014B0004946204805F008F91E4804F0B1FE27E02F
:1014C00001221EA11B4805F03FF860B95946194892
:1014D00004F0B6FE184B3A464946164805F0F4F8B3
:1014E000144804F09DFE13E001221BA1114805F0F1
:1014F0002BF860B959460F4804F0A2FE0E4B3A464D
:1015000049460C4805F0E0F80A4804F089FE00BF9F
:1015100000BF00BFA6E70000303A2F53595354458F
:101520004D2F464F4E542F47424B31322E464F4E91
:1015300000000000000100205C000020303A2F5322
:10154000595354454D2F464F4E542F47424B313639
:101550002E464F4E00000000303A2F535953544549
:101560004D2F464F4E542F47424B32342E464F4E4E
:101570000000000000BFFEE772B6704762B6704719
:1015800010B5012003F033FE10BD00001CB5044669
:101590000020019000902148008800042049086044
:1015A0000D204860402088600020C8604FF48060B3
:1015B0000861084602F018F91A48406B009002E0F2
:1015C0001848406B0090009800F045000028F7D0C4
:1015D000012002F0D3F820B1012002F089F80120A7
:1015E0001CBD042002F0CAF820B1042002F080F8EB
:1015F0000320F5E70B4800690D2801D01020EFE724
:1016000040F2FF5002F074F80648406901900198DA
:10161000C0F3432020700020E2E7000064000020B7
:10162000400300200080014070B5044600260948B0
:101630000588408845430021084601F005FE01F079
:10164000FDFE00BF02E004480480761CAE42FAD3DF
:1016500070BD0000F60000200008006C10B50446C4
:10166000002C3DD139498871F02008804FF4A070DA
:1016700048800846808849F24131884205D0334885
:10168000808846F60401884214D12C202F49C87165
:101690002A2008722B2048720846808846F60401EA
:1016A00088424ED14FF4A070284908804FF4F07062
:1016B000488046E02548808848F68911884207D14D
:1016C00022202249C8714E2008724F20487238E00B
:1016D00022201E49C871202008722120487230E063
:1016E0001A48808846F6040188422AD0012017490A
:1016F00088714FF4A0700880F020488008468088E8
:1017000049F24131884207D12C201049C8712A2062
:1017100008722B20487214E00C48808848F6891122
:10172000884207D122200949C8714F2008724E20F3
:10173000487206E022200549C87121200872202045
:101740004872002001F09AFC10BD0000F600002055
:1017500030B504460D462946204601F075FD01F0DE
:101760006DFE024800880249088030BD5800002004
:101770000008006C30B503460C4615461D488088AD
:1017800049F24131884205D01A48808846F6040162
:10179000884214D11749087A01F04AFE181201F064
:1017A00041FED8B201F03EFE1249487A01F040FEF7
:1017B000201201F037FEE0B201F034FE12E00D48D5
:1017C0008079012804D10B480088401EC01A83B2DA
:1017D0000849087A194601F03BFE0649487A214635
:1017E00001F036FE0348C07903490880881C058053
:1017F00030BD0000F6000020FE07006C00B59FB071
:101800000121080201F074FE012140F2691001F08B
:101810008FFE0120ADF8780010208DF87B000320AA
:101820008DF87A001EA9FE48FFF752FD4CF2337086
:10183000ADF8780018208DF87B0003208DF87A0031
:101840001EA9F848FFF744FD4FF68070ADF8780008
:1018500018208DF87B0003208DF87A001EA9F2482D
:10186000FFF736FD41F20100ADF8780018208DF841
:101870007B0003208DF87A001EA9EC48FFF728FDB5
:1018800001200890002009900F200A9000200B9062
:101890000C900D900E900190029003200390002078
:1018A000049005900690079006200F90002010905D
:1018B0001190102012900020139015901490169003
:1018C00017904FF480501890002019904FF48040EA
:1018D0001A9000201B9008A81C9001A81D900FA82A
:1018E000FFF7A2FB01210620FFF784FB322004F062
:1018F00037F90121002001F0ABFD322004F030F96E
:10190000002001F0AFFBCA49888008468088FF2884
:101910000ADB084680884FF6FF71884204D0C4482D
:101920008088B0F5134F4BD1D32001F081FD01F039
:1019300093FB01F091FB01F08FFBBD4988800846C5
:1019400080884FF6FF7101EA0020B949888001F0D4
:1019500083FBB74989880843B54988800846808851
:1019600049F2413188421BD0BF2001F061FD01F0F6
:1019700073FB01F071FB01F06FFB01F06DFBAC49F3
:101980008880084680884FF6FF7101EA0020A84948
:10199000888001F061FBA64989880843A4498880B2
:1019A000A348808849F24131884209D0A048808804
:1019B00046F60401884203D049F241309C498880B0
:1019C0009B48808849F2413188427CD1CF2001F088
:1019D0002FFD002001F026FDC12001F023FD302065
:1019E00001F020FDED2001F023FD642001F01AFD3F
:1019F000032001F017FD122001F014FD812001F0F9
:101A000011FDE82001F014FD852001F00BFD1020F0
:101A100001F008FD7A2001F005FDCB2001F008FD62
:101A2000392001F0FFFC2C2001F0FCFC002001F02B
:101A3000F9FC342001F0F6FC022001F0F3FCF72061
:101A400001F0F6FC202001F0EDFCEA2001F0F0FCB2
:101A5000002001F0E7FC002001F0E4FCC02001F0D0
:101A6000E7FC1B2001F0DEFCC12001F0E1FC0120BD
:101A700001F0D8FCC52001F0DBFC302001F0D2FCE5
:101A8000302001F0CFFCC72001F0D2FCB72001F0DC
:101A9000C9FC362001F0CCFC482001F0C3FC3A2000
:101AA00001F0C6FC552001F0BDFCB12001F0C0FCE6
:101AB000002001F0B7FC1A2001F0B4FCB62001F0C0
:101AC000B7FC0A2000E099E001F0ACFCA22001F094
:101AD000A9FCF22001F0ACFC002001F0A3FC2620C0
:101AE00001F0A6FC012001F09DFCE02001F0A0FC2B
:101AF0000F2001F097FC2A2001F094FC282001F02F
:101B000091FC082001F08EFC0E2001F08BFC0820D7
:101B100001F088FC542001F085FCA92001F082FC32
:101B2000432001F07FFC0A2001F07CFC0F2001F033
:101B300079FC002001F076FC002001F073FC00200D
:101B400001F070FC002001F06DFCE12001F070FC60
:101B5000002001F067FC152001F064FC172001F063
:101B600061FC072001F05EFC112001F05BFC062007
:101B700001F058FC2B2001F055FC562001F052FCDE
:101B80003C2001F04FFC052001F04CFC102001F03E
:101B900049FC0F2001F046FC3F2001F043FC3F20B0
:101BA00001F040FC0F2001F03DFC2B2001F040FC37
:101BB000002001F037FC002001F034FC012001F08E
:101BC00031FC3F2001F02EFC2A2001F031FC0020E6
:101BD00001F028FC002001F025FC002001F022FC8F
:101BE000EF2001F01FFC112001F022FC782003F00F
:101BF000B7FF292001F01CFC01F01DBA0C488088B9
:101C000046F6040188427CD1112001F011FC142019
:101C100003F0A6FFD02001F00BFC07200AE0000033
:101C2000000C014000140140001801400020014058
:101C3000F600002001F0F6FB422001F0F3FB1D202E
:101C400001F0F0FBD12001F0F3FB002001F0EAFBF2
:101C50001A2001F0E7FB092001F0E4FBD22001F09B
:101C6000E7FB012001F0DEFB222001F0DBFBC020BE
:101C700001F0DEFB102001F0D5FB3B2001F0D2FB90
:101C8000002001F0CFFB022001F0CCFB112001F07D
:101C9000C9FBC52001F0CCFB032001F0C3FBC82029
:101CA00001F0C6FB002001F0BDFB252001F0BAFBCE
:101CB000212001F0B7FB052001F0B4FB002001F06A
:101CC000B1FB0A2001F0AEFB652001F0ABFB252043
:101CD00001F0A8FB772001F0A5FB502001F0A2FB4A
:101CE0000F2001F09FFB002001F09CFBF82001F089
:101CF0009FFB012001F096FBFE2001F099FB0020E4
:101D000000E038E001F08EFB022001F08BFB202088
:101D100001F08EFB362001F08BFB082001F082FBE6
:101D20003A2001F085FB552001F07CFB2B2001F0CF
:101D30007FFB002001F076FB002001F073FB012007
:101D400001F070FB3F2001F06DFB2A2001F070FBD9
:101D5000002001F067FB002001F064FB012001F08E
:101D600061FBDF2001F05EFB782003F0F9FE292003
:101D700001F05EFB40E7FE48808849F22531884249
:101D80007ED147F6F001E52001F062FB4FF480714F
:101D9000012001F05DFB4FF4E061022001F058FBEF
:101DA00041F23001032001F053FB0021042001F037
:101DB0004FFB40F20221082001F04AFB00210920DC
:101DC00001F046FB00210A2001F042FB00210C201B
:101DD00001F03EFB00210D2001F03AFB00210F2015
:101DE00001F036FB0021102001F032FB0721112009
:101DF00001F02EFB0021122001F02AFB002113200C
:101E000001F026FB0021072001F022FB41F2906146
:101E1000102001F01DFB40F22721112001F018FBDA
:101E20009D21122001F014FB4FF4C851132001F042
:101E30000FFB2521292001F00BFB0D212B2001F0A8
:101E400007FB0721302001F003FB40F20331312072
:101E500001F0FEFA0321322001F0FAFA40F20621E5
:101E6000352001F0F5FA0821362001F0F1FA40F2B0
:101E70000641372001F0ECFA4FF44171382000E0C0
:101E800057E001F0E5FA0721392001F0E1FA40F2CC
:101E900002613C2001F0DCFA08213D2001F0D8FA73
:101EA0000021502001F0D4FAEF21512001F0D0FAA6
:101EB0000021522001F0CCFA40F23F11532001F0F2
:101EC000C7FA4FF42741602001F0C2FA01216120D6
:101ED00001F0BEFA00216A2001F0BAFA0021802048
:101EE00001F0B6FA0021812001F0B2FA002182202F
:101EF00001F0AEFA0021832001F0AAFA002184202B
:101F000001F0A6FA0021852001F0A2FA102190200C
:101F100001F09EFA4FF4C061922001F099FA40F26C
:101F20003311072001F094FA2221002001F090FAE9
:101F300062E68F48808849F2283188427ED141F29A
:101F40008F01EC2001F084FA41F23421EF2001F0FE
:101F50007FFA4FF48071012001F07AFA4FF4E061CA
:101F6000022001F075FA41F23001032001F070FA0D
:101F70000021042001F06CFA40F20221082001F057
:101F800067FA0021092001F063FA00210A2001F01C
:101F90005FFA01210C2001F05BFA00210D2001F015
:101FA00057FA00210F2001F053FA0021102001F010
:101FB0004FFA0721112001F04BFA0021122001F005
:101FC00047FA0021132001F043FA0121072001F014
:101FD0003FFA322003F0C4FD41F29041102001F09D
:101FE00037FA40F22721112001F032FA322003F0B3
:101FF000B7FD8A21122001F02BFA322003F0B0FD48
:102000004FF4D051132001F023FA0621292001F0CA
:102010001FFA0D212B2001F01BFA322003F0A0FD46
:102020000021202001F014FA0021212001F010FAF3
:10203000322003F095FD0021302000E074E001F033
:1020400007FA40F20461312001F002FA40F2053152
:10205000322001F0FDF90021352001F0F9F940F6B8
:102060000941362001F0F4F94FF40171372001F0F5
:10207000EFF940F20131382001F0EAF940F207713E
:10208000392001F0E5F900213C2001F0E1F940F6AA
:102090000A213D2001F0DCF9322003F061FD00212E
:1020A000502001F0D5F9EF21512001F0D1F90021A4
:1020B000522001F0CDF940F23F11532001F0C8F950
:1020C0004FF42741602001F0C3F90121612001F0A4
:1020D000BFF900216A2001F0BBF90021802001F046
:1020E000B7F90021812001F0B3F90021822001F02D
:1020F000AFF90021832001F0ABF90021842001F029
:10210000A7F90021852001F0A3F91021902001F00A
:102110009FF94FF4C061922001F09AF940F2331117
:10212000072001F095F967E51148808849F22031D0
:1021300088427DD10021084601F08AF94FF4807170
:10214000012001F085F94FF4E061022001F080F9EF
:1021500041F23001032001F07BF90021042001F05D
:1021600077F940F20221082001F072F9002101E024
:10217000F6000020092001F06BF900210A2001F08F
:1021800067F901210C2001F063F900210D2001F015
:102190005FF900210F2001F05BF9322003F0E0FC31
:1021A00040F20111072001F053F9322003F0D8FC6E
:1021B0004FF48651102001F04BF90721112001F056
:1021C00047F94FF48871122001F042F94FF4306161
:1021D000132001F03DF90021292001F039F944F2E2
:1021E00010012B2001F034F90021502001F030F9CA
:1021F000EF21512001F02CF90021522001F028F9A3
:1022000040F23F11532001F023F94FF41C5160209C
:1022100001F01EF90121612001F01AF900216A2064
:1022200001F016F90021802001F012F9002100E0F0
:1022300031E0812001F00CF90021822001F008F941
:102240000021832001F004F90021842001F000F92D
:102250000021852001F0FCF81021902001F0F8F811
:102260000021922001F0F4F80121932001F0F0F810
:102270004FF48871952001F0EBF80021972001F0D0
:10228000E7F80021982001F0E3F840F273110720ED
:1022900001F0DEF8B0E4FE48808849F2313188422E
:1022A0007DD141F21401E72001F0D2F84FF48071A2
:1022B000012001F0CDF84FF40071022001F0C8F8C0
:1022C00041F23801032001F0C3F840F20221082056
:1022D00001F0BEF80021092001F0BAF800210A201F
:1022E00001F0B6F800210C2001F0B2F800210D2019
:1022F00001F0AEF800210F2001F0AAF80021102013
:1023000001F0A6F80721112001F0A2F80021122007
:1023100001F09EF80021132001F09AF8C82003F084
:102320001FFC41F29061102001F092F840F2272149
:10233000112001F08DF8322003F012FC0C21122044
:1023400001F086F8322003F00BFC4FF400611320FB
:1023500001F07EF81121292001F07AF80B212B20C1
:1023600001F076F8322003F0FBFB0021202001F081
:102370006FF840F23F11212001F06AF8002130206F
:1023800001F066F84FF48371312001F061F800210B
:10239000322001F05DF84FF40171352000E064E077
:1023A00001F056F841F20A61362001F051F840F28E
:1023B0000771372001F04CF84FF48371382001F099
:1023C00047F840F20771392001F042F840F202412B
:1023D0003C2001F03DF840F60F413D2001F038F877
:1023E0000021502001F034F8EF21512001F030F8A5
:1023F0000021522001F02CF840F23F11532001F04F
:1024000027F84FF41C51602001F022F801216120CF
:1024100001F01EF800216A2001F01AF80021802046
:1024200001F016F80021812001F012F8002182202D
:1024300001F00EF80021832001F00AF80021842029
:1024400001F006F80021852001F002F8102190200B
:1024500000F0FEFF4FF4C061922000F0F9FF40F25F
:102460003311072000F0F4FF84E48948808845F2A6
:10247000084188427ED14FF48071012000F0E8FFCE
:102480004FF4E061022000F0E3FF41F2300103204D
:1024900000F0DEFF0021042000F0DAFF40F2072107
:1024A000082000F0D5FF0021092000F0D1FF002115
:1024B0000A2000F0CDFF00210C2000F0C9FF002110
:1024C0000D2000F0C5FF00210F2000F0C1FF1420F7
:1024D00003F046FB41F2B061102000F0B9FF01218A
:1024E000112000F0B5FF0121172000F0B1FF4FF4DB
:1024F0009C71122000F0ACFF4FF40061132000F03B
:10250000A7FF0921292000F0A3FF09212A2000F0BC
:102510009FFF0021A42000F09BFF0021502000F02D
:1025200097FFEF21512000F093FF0021522000F08F
:102530008FFF40F23F11532000F08AFF4FF41C51EF
:10254000602000F085FF0121612000F081FF002163
:102550006A2000F07DFF0021802000F079FF00213B
:10256000812000F075FF0021822000F071FF002122
:10257000832000E023E000F06BFF0021842000F0C6
:1025800067FF0021852000F063FF1321902000F0F9
:102590005FFF0021922000F05BFF0321932000F0F9
:1025A00057FF4FF48871952000F052FF40F27311ED
:1025B000072000F04DFF322003F0D2FAB8E434488F
:1025C000808841F2055188427ED10021072000F029
:1025D0003FFF322003F0C4FA4FF48E71122000F056
:1025E00037FF0121A42000F033FF0F21082000F065
:1025F0002FFF08210A2000F02BFF08210D2000F0FA
:1026000027FF40F20771302000F022FF0721312020
:1026100000F01EFF40F20361322000F019FF4FF47A
:10262000E061332000F014FF40F20221342000F07A
:102630000FFF0221352000F00BFF41F60F7136200D
:1026400000F006FF40F20771372000F001FF002183
:10265000382000F0FDFE0021392000F0F9FE40F2A4
:1026600007713A2000F0F4FE00213B2000F0F0FE5C
:1026700007213C2000F0ECFE00213D2000F0E8FEA8
:10268000322003F06DFA0121072000F0E1FE01E0A5
:10269000F60000200121172000F0DAFE322003F0BE
:1026A0005FFA4FF4BD51102000F0D2FE40F2172126
:1026B000112000F0CDFE4FF48F71122000F0C8FE03
:1026C0004FF47061132000E097E000F0C1FE00219C
:1026D0002A2000F0BDFE0A21292000F0B9FE4FF4A7
:1026E0009F71122000F0B4FE0021502000F0B0FED7
:1026F000EF21512000F0ACFE0021522000F0A8FE96
:1027000040F23F11532000F0A3FE4FF41C51602013
:1027100000F09EFE0121612000F09AFE00216A2057
:1027200000F096FE0021802000F092FE0021812022
:1027300000F08EFE0021822000F08AFE002183201E
:1027400000F086FE0021842000F082FE002185201A
:1027500000F07EFE1321902000F07AFE4FF44071CD
:10276000922000F075FE0521932000F071FE0021FB
:10277000952000F06DFE0021972000F069FE0021F9
:10278000982000F065FE4FF48071012000F060FE9B
:102790004FF4E061022000F05BFE41F238010320BB
:1027A00000F056FE0021042000F052FE00210C2013
:1027B00000F04EFE00210F2000F04AFE00212020F4
:1027C00000F046FE0021212000F042FE21210720DA
:1027D00000F03EFE142003F0C3F96121072000F051
:1027E00037FE142003F0BCF940F27311072000F00B
:1027F0002FFE142003F0B4F995E4FE4880884BF2D4
:10280000055188427ED10021084600F021FE0021BA
:10281000084600F01DFE0021084600F019FE0021C8
:10282000084600F015FE0121A42000F011FE14203E
:1028300003F096F94FF41C51602000F009FE40F2BD
:102840000221082000F004FE4FF40571302000F052
:10285000FFFD43F21571312000F0FAFD40F20461F2
:10286000322000F0F5FD40F61661332000F0F0FD57
:1028700042F21121342000F0EBFD4FF4A851352035
:1028800000F0E6FD48F20751362000F0E1FD41F28C
:102890000741372000F0DCFD41F20341382000F011
:1028A000D7FD2021392000F0D3FD1A21902000F01F
:1028B000CFFD0021102000F0CBFD0721112000F0FA
:1028C000C7FD0021122000F0C3FD0021132000F0FD
:1028D000BFFD142003F044F94FF4E661102000F02E
:1028E000B7FD40F23711112000F0B2FD142003F0C3
:1028F00037F94FF4DC71122000F0AAFD142003F028
:102900002FF900E083E04FF47061132000F0A0FD88
:1029100080212A2000F09CFD4821292000F098FD0C
:10292000142003F01DF94FF48071012000F090FD98
:102930004FF4E061022000F08BFD41F238010320EA
:1029400000F086FD40F20221082000F081FD002108
:102950000A2000F07DFD00210C2000F079FD00210F
:102960000D2000F075FD30210E2000F071FD0021DA
:10297000502000F06DFDEF21512000F069FD002195
:10298000522000F065FD40F23F11532000F060FD41
:102990004FF41C51602000F05BFD0121612000F02C
:1029A00057FD00216A2000F053FD1121902000F016
:1029B0004FFD4FF4C061922000F04AFD40F2024109
:1029C000932000F045FD0221942000F041FD1420E9
:1029D00003F0C6F80121072000F03AFD142003F0AF
:1029E000BFF86121072000F033FD40F2731107208A
:1029F00000F02EFD0021202000F02AFD00212120E2
:102A000000F026FD2221002000F022FD13E379488A
:102A100080884CF2055188427ED10021084600F0A2
:102A200017FD0021084600F013FD142003F098F86C
:102A30000021084600F00CFD0021084600F008FDCA
:102A40000021084600F004FD0021084600F000FDCA
:102A50000121A42000F0FCFC142003F081F84FF4C5
:102A60001C51602000F0F4FC40F60601082000F044
:102A7000EFFC40F20371302000F0EAFC012131202C
:102A800000F0E6FC0421322000F0E2FC4FF48171FA
:102A9000332000F0DDFC4FF44071342000F0D8FC0E
:102AA00040F20311352000F0D3FC1F21362000F046
:102AB000CFFC40F20371372000F0CAFC012138201E
:102AC00000F0C6FC0421392000F0C2FC1521902042
:102AD00000F0BEFC4FF48261102000F0B9FC40F21F
:102AE0004721112000F0B4FC4FF4DE71122000F0F9
:102AF000AFFC4FF46061132000F0AAFC782003F0D3
:102B00002FF84FF48071012000F0A2FC4FF4007107
:102B1000022000F09DFC00E050E041F23001032073
:102B200000F096FC08210A2000F092FC00210C2005
:102B300000F08EFC20210E2000F08AFC00210F20E6
:102B400000F086FC0021202000F082FC00212120E2
:102B500000F07EFC3D212A2000F07AFC142002F0D7
:102B6000FFFF2D21292000F073FC0021502000F0F0
:102B70006FFC4DF2EF01512000F06AFC0021522061
:102B800000F066FC40F23F11532000F061FC002190
:102B9000612000F05DFC00216A2000F059FC4FF438
:102BA0004071922000F054FC0521932000F050FC6D
:102BB0004FF48071072000F04BFC3CE20D48808808
:102BC00048F6891188427DD10121002000F040FCA7
:102BD0004AF6A401032000F03BFC00210C2000F089
:102BE00037FC40F60C010D2000F032FC4FF42C5164
:102BF0000E2001E0F600002000F02AFCB0211E208B
:102C000000F026FC42F63F31012000F021FC4FF499
:102C1000C061022000F01CFC0021102000F018FC14
:102C200046F27801112000F013FC0021052000F08D
:102C30000FFC0021062000F00BFC4EF61C71162044
:102C400000F006FC0321172000F002FC40F23321C3
:102C5000072000F0FDFB00210B2000F0F9FB002114
:102C60000F2000F0F5FB0021412000F0F1FB0021D6
:102C7000422000F0EDFB0021482000F0E9FB40F28B
:102C80003F11492000F0E4FB00214A2000F0E0FB66
:102C900000214B2000F0DCFB4FF46F41442000F09A
:102CA000D7FB0021452000F0D3FB40F23F11462026
:102CB00000F0CEFB40F20771302000F0C9FB4FF46A
:102CC000017100E040E0312000F0C2FB4FF40171DF
:102CD000322000F0BDFB40F20251332000F0B8FB7F
:102CE00040F20751342000F0B3FB4FF4017135205E
:102CF00000F0AEFB4FF40171362000F0A9FB40F26A
:102D00000251372000F0A4FB40F202313A2000F0DB
:102D10009FFB40F202313B2000F09AFB0021232070
:102D200000F096FB0021242000F092FB4FF40041BC
:102D3000252000F08DFB00214F2000F089FB0021B1
:102D40004E2000F085FB76E1C148808844F2315185
:102D500088427DD10121002000F07AFB0A2002F098
:102D6000FFFE41F22861102000F072FB0E211220BC
:102D700000F06EFB40F63921132000F069FB0A20B9
:102D800002F0EEFE4021112000F062FB50211520E0
:102D900000F05EFB0A2002F0E3FE1E21122000F08C
:102DA00057FB0A2002F0DCFE4FF4B151102000F076
:102DB0004FFB42F63921132000F04AFB0A2002F0B3
:102DC000CFFE4FF48071012000F042FB4FF44071C0
:102DD000022000F03DFB41F23801032000F038FBF7
:102DE00040F20221082000F033FB08210A2000F005
:102DF0002FFB0021302000F02BFB40F2024131205C
:102E000000F026FB4FF48371322000F021FB40F2EA
:102E10000351332000F01CFB4FF48271342000F08A
:102E200017FB40F20131352000F012FB40F2077130
:102E3000362000F00DFB40F20531372000F008FB92
:102E40004FF40271382000F003FB40F60B7100E0F4
:102E50003CE0392000F0FCFA0221412000F0F8FAB1
:102E60004FF41C51602000F0F3FA0121612000F0C2
:102E7000EFFA4FF40471902000F0EAFA4FF48571F4
:102E8000922000F0E5FA0421932000F0E1FA4FF4DB
:102E90008071A02000F0DCFA0121072000F0D8FAB0
:102EA0002121072000F0D4FA2321072000F0D0FAD6
:102EB0003321072000F0CCFA40F23311072000F054
:102EC000C7FA0021A02000F0C3FAB4E0604880886F
:102ED00044F235518842F8D13021152000F0B8FA7B
:102EE00010219A2000F0B4FA2021112000F0B0FA4D
:102EF00043F22841102000F0ABFA0221122000F02A
:102F0000A7FA41F23801132000F0A2FA282002F0BB
:102F100027FE1221084600F09BFA282002F020FE2E
:102F200043F22041102000F093FA43F238011320BD
:102F300000F08EFA462002F013FE0021302000F04F
:102F400087FA40F20241312000F082FA40F2073164
:102F5000322000F07DFA4FF44171332000F078FA0E
:102F60000421342000F074FA40F20141352000F0D1
:102F70006FFA40F20771362000F06AFA40F205312C
:102F8000372000F065FA4FF4C261382000F060FA93
:102F90004FF4C261392000F05BFA4FF480710120D8
:102FA00000F056FA4FF44071022000F051FA41F25D
:102FB0003001032000F04CFA40F60801082000F030
:102FC00047FA08210A2000F043FA4FF41C51602010
:102FD00000F03EFA0121612000F03AFA4FF49F71AF
:102FE000902000F035FA4FF48071922000F030FA12
:102FF0004FF48071932000F02BFA4FF44051A02041
:1030000000F026FA1021A32000F022FA0121072067
:1030100000F01EFA2121072000F01AFA23210720D0
:1030200000F016FA3321072000F012FA40F23311B3
:10303000072000F00DFA0120FEF710FB01200549E2
:1030400008604FF6FF70FEF7EFFA1FB000BD0000FA
:10305000F60000208081214201480088704700006E
:103060000008006C10B50446204600F0E1F9052088
:1030700002F09CFDFFF7F0FF10BD000070B50446A4
:10308000002300266F48807901281ED16D48808872
:1030900046F60401884218D0082C15D2DFE804F067
:1030A0000406080A0C0E101206240DE007240BE09B
:1030B000042409E0052407E0012405E0002403E0DE
:1030C000032401E0022400BF00BF5E48808849F26B
:1030D0004131884205D05B48808846F60401884229
:1030E0007CD1082C1CD2DFE804F00406090C0F1276
:1030F000151800BF14E043F0800311E043F04003D3
:103100000EE043F0C0030BE043F0200308E043F07F
:10311000600305E043F0A00302E043F0E00300BFDA
:1031200000BF362643F008034648808846F604016F
:10313000884201D143F002031946304600F088F975
:1031400003F0200068B13F4800883E494988884222
:1031500014DA3C48058840883A490880084645808A
:103160000CE03848008837494988884206DD3548F0
:103170000588408833490880084645803149087AE7
:1031800000F056F9002000F04DF9002000F04AF957
:103190002C490988491EC1F30F2000F043F9294941
:1031A0000978491EC8B200F03DF92649487A00F076
:1031B0003FF9002000F036F9002000F033F92149F2
:1031C0004988491EC1F30F2000F02CF91D49897868
:1031D000491EC8B200F026F932E0FFE7082C1CD2E5
:1031E000DFE804F004070A0D0F12151843F030034E
:1031F00013E043F0100310E043F020030DE000BFA4
:103200000BE043F0380308E043F0280305E043F007
:10321000180302E043F0080300BF00BF094880889C
:1032200048F68911884204D1112646F24000034332
:1032300002E0032643F480531946304600F008F9B3
:1032400070BD0000F600002010B503460C461A4879
:10325000808849F24131884205D01748808846F677
:103260000401884214D11449087A00F0E1F81812D8
:1032700000F0D8F8D8B200F0D5F80F49487A00F03D
:10328000D7F8201200F0CEF8E0B200F0CBF812E050
:1032900009488079012804D107480088401EC01AD7
:1032A00083B20549087A194600F0D2F80249487AF3
:1032B000214600F0CDF810BDF60000202DE9F84FB2
:1032C00005460F4690461E4600975148B0F80090BC
:1032D000A8F1200000F0FF080A9800284ED1002431
:1032E00049E00C2E07D108EB48004A4901EB800069
:1032F00010F804A004E0484800EB081010F804A0FF
:103300004FF0000B31E00AF0800018B14048A0F8FF
:10331000009003E0414800883D490880394628462E
:10332000FEF716FA4FEA4A604FEA106A781C87B235
:103330003B480088A84204DC3548A0F80090BDE86E
:10334000F88F0098381AB0420BD1009F681C85B2E4
:1033500033480088A84203DC2D48A0F80090EEE72F
:1033600006E00BF1010000F0FF0BBBF1080FCADB18
:1033700000BF601CC4B2B442B3DB44E0002440E0B0
:103380000C2E07D108EB4800224901EB800010F811
:1033900004A004E0204800EB081010F804A04FF04F
:1033A000000B28E00AF0800018B139462846FEF7E5
:1033B000CFF94FEA4A604FEA106A781C87B2184882
:1033C0004088A84203DC1248A0F80090B7E70098B4
:1033D000381AB0420BD1009F681C85B21048008893
:1033E000A84203DC0A48A0F80090A8E706E00BF129
:1033F000010000F0FF0BBBF1080FD3DB00BF601C26
:10340000C4B2B442BCDB0248A0F8009000BF96E70B
:1034100058000020147B0008887F00085A00002014
:10342000F600002001490880704700000008006C89
:103430000149088070470000FE07006C0248C0790F
:103440000249088070470000F6000020FE07006C6B
:10345000024A1080921C118070470000FE07006C29
:1034600000BFFEE77047000070B5002100230F2267
:10347000C47804B3154C246804F4E064C4F5E06433
:10348000210AC1F10403CA40447804FA03F18478A4
:103490001440214309010E4C0678A155047804F02C
:1034A0001F050124AC4005786D11AD0005F1E02544
:1034B000C5F8004109E0047804F01F050124AC4080
:1034C000044D0678761145F8264070BD0CED00E0FD
:1034D00000E400E080E100E002490143024A11609B
:1034E000704700000000FA050CED00E07047000096
:1034F00029B1064A52690243044B5A6104E0034A67
:1035000052698243014B5A6170470000001002402B
:1035100029B1064A12690243044B1A6104E0034AC6
:1035200012698243014B1A6170470000001002408B
:1035300029B1064A92690243044B9A6104E0034AA6
:1035400092698243014B9A6170470000001002406B
:1035500029B1064AD2680243044BDA6004E0034A08
:10356000D2688243014BDA607047000000100240CD
:1035700030B500210022002400232D4D6D6805F098
:103580000C0121B1042905D0082923D105E0294DDA
:10359000056022E0274D05601FE0254D6D6805F4AC
:1035A0007012234D6D6805F48034022505EB9242BC
:1035B0001CB9214D554305600BE01D4D6D6805F4A8
:1035C00000351DB11C4D5543056002E0194D5543B2
:1035D000056002E0174D056000BF00BF144D6D6827
:1035E00005F0F0010909154D6B5C0568DD4045608B
:1035F0000F4D6D6805F4E061090A104D6B5C45687C
:10360000DD4085600A4D6D6805F46051C90A0B4DB7
:103610006B5C4568DD40C560054D6D6805F4404153
:10362000890B074D6B5CC568B5FBF3F5056130BDD3
:103630000010024000127A0000093D004400002002
:10364000540000207CB50546002400200090019025
:1036500000260DB1022600E000262248406900F055
:10366000007008B10E207CBD1F49098888B26946E8
:10367000FDF74EFD04460CB12046F4E7019800F436
:10368000802060B31848008800041849086037207B
:103690004860402088600020C8604FF48060086166
:1036A000084600F0A1F83720FDF786F904460CB172
:1036B0002046D8E70D48066006200C4948604020A7
:1036C00088600020C8604FF480600861084600F000
:1036D0008BF80620FDF770F904462046C3E7252045
:1036E000C1E700000080014064000020400300208A
:1036F000014988637047000000800140014908606B
:1037000070470000A00030420146034A506820F094
:10371000FF00084350607047008001400149086085
:10372000704700008C05304200210A4B02685A6243
:1037300042689A621A46D16A21F0F701D0E9022361
:103740001A4303691A4343691A431143014AD16278
:103750007047000000800140002006490860486072
:103760008860C86048628862C86203488863002035
:10377000C863704700800140FF07C0000146002079
:10378000034A526B0A400AB1012000E00020704752
:10379000008001400248006800F00300704700000C
:1037A0000080014010B500F053FC10BD00210A4A12
:1037B000516847F6FF629143027D83681A4343686C
:1037C0001A43C3681A4303681A4303691A4311432F
:1037D000014A5160704700000080014001480068C4
:1037E00070470000808001400021094B02689A6008
:1037F0001A46D1686FF30A01D0E901231A43C3685E
:103800001A4303691A431143014AD160704700000B
:10381000008001400549096821F00301034A116055
:1038200011460968014311607047000000800140A3
:1038300001490860704700008080014070B58CB07D
:1038400006460C46154601210220FFF751FE13489B
:10385000FDF7A2F900211148FDF792F910480190F7
:1038600002960395A0080490002005908020069001
:103870008000079080000890002009904FF40050CD
:103880000A9000200B9001A90448FDF72BFA0021B3
:103890000248FDF775F90CB070BD00004404024009
:1038A0008080014070B50446002516480078032842
:1038B00001D1272070BD1348007838B11148007835
:1038C000012803D00F480078022818D1022C01D318
:1038D0002720EFE7E0B2FFF7B5FE05467DB90A48BD
:1038E000406820F4C0500849486008464068A1B2CA
:1038F00040EAC120044948600846406848602846BC
:10390000D8E700006000002000800140F0B50146CB
:1039100000200022BE4B1B7881F85630BD4B1B881F
:10392000A1F85430BC4B1B681A0E93090B70C2F3FC
:1039300083034B7002F003038B70B74B1B68C3F318
:103940000742CA70B44B1B88C3F307220A71B24BFB
:103950001A784A715B681A0E1301CB80AE4B5B6814
:10396000C3F30742CB8843EA1213CB8002F00F0364
:103970000B72A94B9B88C3F30722D3094B72C2F386
:1039800080138B72C2F34013CB72C2F300130B731C
:1039900000234B739E4B1B783BB19D4B1B78012B37
:1039A00003D09B4B1B78032B4FD193071B0D0B614F
:1039B000994B1A790B6943EA82030B61964B9B681A
:1039C0001A0E0B6943EA92130B61C2F3C2030B7523
:1039D00002F007034B75904B9B68C3F307425309F2
:1039E0008B75C2F38203CB7593075B0F0B768A4B03
:1039F0001B89C3F307220B7E43EAD2130B760B69B4
:103A00005B1C0024C1E912340B7E9B1C012404FAC8
:103A100003F3DC17D1E91256A5FB037C06FB03C3B5
:103A200005FB0433C1E912730C7A0123A3400B6533
:103A30000024D1E912650B6DA6FB037C05FB03C3D3
:103A400006FB0433C1E912732EE0714B1B78022B85
:103A50002AD1714B1A7993069B0A0B616E4B9B68B6
:103A60001A0E0B6943EA02230B616B4B9B68C3F38D
:103A700007420B6913430B61674B1B89C3F3072292
:103A80000B695B1C4FF40074A3FB04464FF4806386
:103A90000025A4FB037C06FB03C304FB0533C1E93B
:103AA00012734FF400730B65C2F3801301F8193FD2
:103AB00093065B0E4B70584B1A7A4B7843EAD2133D
:103AC0004B7002F07F038B70534BDB681A0ED309E7
:103AD000CB70C2F341130B71C2F382034B71930796
:103AE0001B0F8B714C4BDB68C3F307428B7943EAA6
:103AF00092138B71C2F34013CB7100230B7202F04F
:103B000001034B72444B9B89C3F30722D3098B7289
:103B1000C2F38013CB72C2F340130B73C2F30013D2
:103B20004B73C2F381038B7302F00303CB733A4BE5
:103B30001A7B53080B7401234B74384B1B681A0E05
:103B4000CA741939354B1B68C3F307421402CC857C
:103B5000324B1B88C3F30722CB8D1343CB852F4BEE
:103B60001A7814060C635B681A0E0B6B43EA024466
:103B70000C632A4B5B68C3F307420B6B43EA0224D6
:103B80000C63264B9B88C3F307220B6B13430B6319
:103B9000224B1A7934235A54204B9B681A0E352332
:103BA0005A541E4B9B68C3F3074214068C631B4B8D
:103BB0001B89C3F307228B6B43EA02448C63174BC8
:103BC0001A7A8B6B43EA02248C63144BDB681A0E5F
:103BD0008B6B13438B63114BDB68C3F307423C23AE
:103BE0005B5C43EA12143C235C5413071C0DCC8726
:103BF0000A4B9B89C3F30722CB8F1343CB87074B19
:103C00001A7B540840235C54012441235C54F0BDCA
:103C100060000020640000206C0300207C03002072
:103C20007CB50025002401213020FFF781FC012113
:103C300040F20240FFF75CFC4FF4F850ADF8000092
:103C400018208DF8030003208DF8020069463048E3
:103C5000FDF73EFB0420ADF8000018208DF80300AE
:103C600003208DF8020069462A48FDF731FB8020C9
:103C7000ADF8000048208DF8030003208DF8020005
:103C800069462448FDF724FBFFF766FD31208DF8D7
:103C9000040000208DF805008DF8060001208DF845
:103CA000070001A8FFF7E0FB00F0E4F8044614B9B0
:103CB00000F036F804461CB91748FFF727FE044603
:103CC00034B91549B1F85410080400F04BFD04460E
:103CD0001CB90120FFF7E6FD04461CB10F4800782F
:103CE000032812D10C4890F8560020B10A4890F8E9
:103CF0005600012801D10A2500E004252846FFF7D7
:103D000003FD002000F046FD044620467CBD000077
:103D100000100140001401409003002060000020CA
:103D200038B5002401200090FFF734FD08B92520A4
:103D300038BD4A480078042821D00020484908604E
:103D400002204860C02088600020C8604FF4806076
:103D500008610846FFF748FDFCF75EFE04460CB11B
:103D60002046E5E73F4840693F4908603D48806993
:103D700048603C48C06988603A48006AC860374873
:103D8000007858B135480078012807D033480078CA
:103D9000062803D031480078022816D10020304987
:103DA000086003204860402088600020C8604FF40D
:103DB000806008610846FFF717FD69460320FCF79D
:103DC00071FE04460CB12046B2E72448007803286F
:103DD00016D1BDF8000000042149086003204860A6
:103DE000402088600020C8604FF480600861084669
:103DF000FFF7FAFCFCF710FE04460CB1204697E7EB
:103E000016480078042827D0BDF80000174908603C
:103E1000BDF8000000041249086009204860C02075
:103E200088600020C8604FF4806008610846FFF792
:103E3000DBFCFCF7F1FD04460CB1204678E70948AD
:103E400040690B4908600748806948600548C069B7
:103E500088600448006AC860002069E760000020AC
:103E600040030020008001407C030020640000200B
:103E70006C0300202DE9F0470027002400260025D0
:103E8000A046A146B2206C49087500200860486031
:103E90008860C86008610846FFF788FC0320FFF7C8
:103EA000B9FC0120FFF72AFC00BF12E000206349A3
:103EB000086048608860C8604FF480600861084608
:103EC000FFF792FCFCF760FD044604B903E0781CA0
:103ED000C7B24A2FEADB00BF14B12046BDE8F08725
:103EE0004FF4D5705549086008204860402088602C
:103EF0000020C8604FF4806008610846FFF774FC3A
:103F0000FCF718FE044624B901204D4908704FF013
:103F10008049002049490860372048604020886077
:103F20000020C8604FF4806008610846FFF75CFC21
:103F30003720FCF741FD0446002C4BD134E0002033
:103F40003E49086037204860402088600020C860F3
:103F50004FF4806008610846FFF746FC3720FCF705
:103F60002BFD04460CB12046B8E7364849EA00006C
:103F70003249086029204860402088600020C860DD
:103F80004FF4806008610846FFF72EFCFCF76EFDD9
:103F900004460CB12046A1E72B484669012080EA7F
:103FA000D67080F001086D1CB8F1000F03D14FF6F8
:103FB000FF708542C3D34FF6FF70854202D31B24A6
:103FC00020468BE706F08040061E32D002201C49B6
:103FD00008702EE01CE01D48184908600120486068
:103FE000402088600020C8604FF480600861084667
:103FF000FFF7FAFBFCF73AFD04460CB120466DE7EB
:1040000011484669012080EAD67080F001086D1CD5
:10401000B8F1000F03D14FF6FF708542DBD34FF6A6
:10402000FF70854202D31B24204657E70320044932
:104030000870204652E700002803002040030020BB
:104040006000002000001080008001400080FF80A0
:1040500010B54948406B00F4807070B34748007851
:10406000012814D10020464908600C2048604020F7
:1040700088600020C8604FF4806008610846FFF740
:10408000B3FB0C20FCF798FC3E49087002E00020CE
:104090003C4908703848806B40F48070364988632A
:1040A0000846C06B4CF23A3188433349C86301205B
:1040B000354908703348007810BDFFE70220FFF74C
:1040C0005DFB68B10220FFF713FB2B48C06B4CF27D
:1040D0003A3188432849C86302202A490870EBE72F
:1040E0000820FFF74BFB68B10820FFF701FB2248CF
:1040F000C06B4CF23A3188431F49C8630420214900
:104100000870D9E72020FFF739FB68B12020FFF7BE
:10411000EFFA1948C06B4CF23A3188431649C8632C
:10412000062018490870C7E71020FFF727FB68B181
:104130001020FFF7DDFA1048C06B4CF23A3188438B
:104140000D49C86305200F490870B5E74FF40070AA
:10415000FFF714FB70B14FF40070FFF7C9FA06487F
:10416000C06B4CF23A3188430349C86307200549C4
:104170000870A1E700209FE700800140690000204F
:10418000400300206A0000206B0000202DE9F84F5A
:104190008146174698460A9C4FF0000AD3464D4682
:1041A0004FF0FF36B9F1000F02D12620BDE8F88F9D
:1041B00000208249C86282480078022805D10402A2
:1041C000780A40EAC8574FEA682800207D4988608D
:1041D0004860401E0860012048610020C8600861F6
:1041E0000846FFF7A1FA7548406900F0007008B171
:1041F0000E20DBE7002C21DDB4F5006F1EDC601E15
:104200002040D8B9204601F0E9FA00906E480460D9
:1042100010206D494860402088600020C8604FF43D
:10422000806008610846FFF7DFFA1020FCF7C4FB46
:104230008246BAF1000F03D05046B7E72620B5E713
:10424000009800015F498860084644604FF0FF30E5
:104250000860012048610220C8600020086108460B
:10426000FFF762FA5848076011205749486040201C
:1042700088600020C8604FF4806008610846FFF73E
:10428000B3FA1120FCF798FB8246BAF1000F01D077
:1042900050468BE74D48007800285AD1FDF76CF95D
:1042A00018E04FF40040FFF769FA78B14FF0000BC7
:1042B00006E042488030006845F82B000BF1010B06
:1042C000BBF1080FF5D32035414E03E00EB90420B1
:1042D0006CE7761E3948406B40F22A61084000289E
:1042E000DFD00820FFF74AFA20B10820FFF700FAD4
:1042F00004205BE70220FFF741FA20B10220FFF71C
:10430000F7F9022052E72020FFF738FA20B12020E9
:10431000FFF7EEF9062049E74FF40070FFF72EFA99
:1043200028B14FF40070FFF7E3F907203EE703E000
:10433000FFF754FA28602D1D4FF40010FFF71EFA06
:104340000028F5D1FDF71AF940F2FF50FFF7D0F938
:1043500031E01E48007801282DD100222146484630
:10436000FFF76CFA00201B4908701B4908701B49B5
:1043700008701248C06B40F22A3108430F49C863E5
:104380000120FFF7CBF900E0761E1548006800F425
:10439000005038B91148007820B90E48007808B9A3
:1043A000002EF1D10EB9042000E70A48007810B1C0
:1043B000084890F800A05046F8E600000080014050
:1043C000600000205403002040030020680000200B
:1043D000FFFF7F006A000020690000206B000020C2
:1043E000000402402DE9FE4F83460C469146002012
:1043F0000290002625462C46700240EAD5566D02F2
:104400000BF00300F0B14FF0000A18E04FF4007019
:1044100000904FEA4A20471946EBE0733A461648A7
:10442000FFF7B4FE02904FF4007213495846FCF7B0
:1044300014F80BF5007B0AF1010000F0FF0ACA45F1
:10444000E4DB16E0B9F1010F09D14FF400702A4600
:10445000334600905846FFF799FE029009E04FF46A
:1044600000702A463346CDE90009584600F006F8A8
:1044700002900298BDE8FE8FE80300202DE9FF5F5F
:1044800017469846DDE90E464FF00009CA464FF040
:10449000FF35A949009808600020A849C862A848CB
:1044A0000078022805D10402780A40EAC8574FEA8A
:1044B00068280020A34988604860401E08600120E9
:1044C00048610020C86008610846FFF72DF99B4845
:1044D000406900F0007018B10E2004B0BDE8F09FF4
:1044E000002C21DDB4F5006F1EDC601E2040D8B921
:1044F000204601F073F983469348046010209249E6
:104500004860402088600020C8604FF480600861E7
:104510000846FFF769F91020FCF74EFA8146B9F119
:10452000000F03D04846D8E72620D6E7012E70D9E1
:1045300006FB04F0B0F1007F01D32620CDE74FEA5F
:104540000B108049886006FB04F048604FF0FF3094
:104550000860012048610220C86000200861084608
:10456000FFF7E2F87848076012207749486040205A
:1045700088600020C8604FF4806008610846FFF73B
:1045800033F91220FCF718FA8146B9F1000F01D077
:104590004846A2E76D48007800287DD1FCF7ECFF83
:1045A0001EE04FF40040FFF7E9F8A8B14FF0000A11
:1045B00008E06248803000685F49096841F82A00D5
:1045C0000AF1010ABAF1080FF3D35B480068203002
:1045D000594908605E4D03E00DB904207DE76D1E6A
:1045E0005648406B40F22A3108400028D9D00820B4
:1045F000FFF7C4F820B10820FFF77AF804206CE731
:104600000220FFF7BBF828B10220FFF771F8022063
:1046100063E78EE02020FFF7B1F820B12020FFF7FC
:1046200067F8062059E74FF40070FFF7A7F828B1A4
:104630004FF40070FFF75CF807204EE709E0FFF742
:10464000CDF83D49096808603B480068001D3A49BB
:1046500008604FF40010FFF791F80028EFD14FF4F5
:104660008070FFF78BF820B33548007838B13448B4
:104670000078012803D032480078022819D10020A0
:10468000314908600C204860402088600020C860E4
:104690004FF48060086100E012E00846FFF7A4F8DC
:1046A0000C20FCF789F98146B9F1000F01D048468A
:1046B00013E7FCF763FF40F2FF50FFF719F838E00B
:1046C00022480078012834D106FB04F1002200982A
:1046D000FFF7B4F800201F49087001201E49087038
:1046E00000201E4908701548C06B40F22A3108436B
:1046F0001249C8630846C06A40F00800C86200E07A
:104700006D1E1748006800F4005008B9002DF7D15D
:104710000DB90420E1E600BF1048007818B90D4833
:1047200000780028F8D00B48007810B1094890F8BC
:1047300000904846D1E600006C0000200080014057
:104740006000002054030020400300206800002087
:10475000FFFF7F006A000020690000206B0000203E
:104760000004024010B504460948046007200849C7
:104770004860402088600020C8604FF48060086175
:104780000846FFF731F80720FCF716F910BD0000C6
:104790004003002001460020012900D011B9024B3E
:1047A000197000E026207047680000202DE9FF5FA7
:1047B00086B017469846149D002600200590049068
:1047C000002481460390824602900195DDF818B0DE
:1047D000DDF818B0BBF1000F03D126200AB0BDE808
:1047E000F09F0020C449C862C44988604860401EE8
:1047F0000860012048610020C86008610846FEF793
:1048000093FFBD48406900F0007008B10E20E5E755
:10481000BB480078022805D10502780A40EAC8574B
:104820004FEA6828002D1FDDB5F5006F1CDC681EFF
:104830002840C8B9284600F0D1FF0590B14805606E
:104840001020B0494860402088600020C8604FF4C4
:10485000806008610846FEF7C7FF1020FCF7ACF83F
:1048600006461EB13046B9E72620B7E7A6480088BD
:104870000004A44908600D204860402088600020A2
:10488000C8604FF4806008610846FEF7ADFF0D2058
:10489000FCF792F806460EB130469FE7964840690D
:1048A00003904FF0FF341BE0641E9748008800041B
:1048B000944908600D204860402088600020C8604E
:1048C0004FF4806008610846FEF78EFF0D20FCF76C
:1048D00073F806460EB1304680E78748406903907A
:1048E000039800F4807008B9002CDDD10CB92920A0
:1048F00074E7844807601820824948604020886037
:104900000020C8604FF4806008610846FEF76CFF25
:104910001820FCF751F806460EB130465EE700203D
:104920007A49087005980001744988600846456016
:104930004FF0FF300860012048610020C860086126
:104940000846FEF7F1FE4FF0FF347148007800286A
:104950007BD1FCF711FE43E04FF48040FEF70EFFE1
:10496000C8B30198A0EB0900202821D20198A0EB40
:10497000090000F0030020B90198A0EB09008008AD
:1049800004E00198A0EB09008008401C02904FF061
:10499000000A09E0DBF80000FEF74AFF0AF1010A0D
:1049A0000BF1040B09F1040902988245F2D30FE0E0
:1049B0004FF0000A05E05BF82A00FEF739FF0AF124
:1049C000010ABAF1080FF6D30BF1200B09F1200907
:1049D0006FF0404404E0FFE70CB90420FEE6641EDB
:1049E0004548406B40F21A6108400028B4D00820C6
:1049F000FEF7C4FE20B10820FEF77AFE0420EDE6A3
:104A00000220FEF7BBFE20B10220FEF771FE02205D
:104A1000E4E61020FEF7B2FE20B11020FEF768FE9B
:104A20000520DBE64FF40070FEF7A8FE30B14FF42E
:104A30000070FEF75DFE0720D0E606E0FCF79EFD65
:104A400040F2FF502C4988633EE03148007801284D
:104A50003AD1102229460698FEF7F0FE00202D4993
:104A600008702A4908702C4908702348C06B40F22E
:104A70001A3108432049C8630846C06A40F008005C
:104A8000C86200E0641E2548006800F4005008B9C0
:104A9000002CF7D11CB9FFF7C3F804209EE64FF0B5
:104AA000FF3400E0641E1C48007820B919480078E3
:104AB00008B9002CF6D10CB904208FE6154800780F
:104AC00010B11448007889E640F2FF50FEF710FE5E
:104AD00004A8FCF75BFD064603E004A8FCF756FDBE
:104AE00006463EB99DF810000728F6D09DF8100044
:104AF0000628F2D0304671E60080014054030020C1
:104B000060000020400300206400002069000020B5
:104B1000680000206A0000206B00002000040240B2
:104B20002DE9FE4F81460C46924600200290002659
:104B300025462C46700240EAD5566D0209F0030066
:104B4000F0B14FF0000B18E04FF4007249461948DD
:104B5000FBF783FC4FF4007000904FEA4B2047199D
:104B600046EBE0733A461348FFF720FE029009F542
:104B700000790BF1010000F0FF0BD345E4DB16E0F8
:104B8000BAF1010F09D14FF400702A463346009064
:104B90004846FFF70BFE029009E04FF400702A46EA
:104BA0003346CDE9000A484600F006F80290029824
:104BB000BDE8FE8FE80300202DE9FF5F84B0DDE94A
:104BC000124700260020039002900025804681466F
:104BD000019007FB04FBDDF810A0DDF810A0BAF18E
:104BE000000F03D1262008B0BDE8F09F0020D8496F
:104BF000C862D84988604860401E0860012048614A
:104C00000020C86008610846FEF78EFDD048406964
:104C100000F0007008B10E20E5E7CF4800780228C8
:104C200008D10402DDE90601400A40EAC1504912F8
:104C3000CDE90601002C1FDDB4F5006F1CDC601E01
:104C40002040C8B9204600F0C9FD0390C348046065
:104C50001020C2494860402088600020C8604FF49E
:104C6000806008610846FEF7BFFD1020FBF7A4FE38
:104C700006461EB13046B6E72620B4E7012F6FD9AD
:104C800007FB04F0B0F1007F01D32620ABE7B24868
:104C9000007838B1B0480078012803D0AE480078D9
:104CA00002282DD1AE4800880004AC4908603720A6
:104CB0004860402088600020C8604FF48060086130
:104CC0000846FEF791FD3720FBF776FE06460EB14B
:104CD000304688E7A14807601720A0494860402077
:104CE00088600020C8604FF4806008610846FEF7C5
:104CF0007BFD1720FBF760FE06460EB1304672E7DB
:104D00009649069808601920486040208860002075
:104D1000C8604FF4806008610846FEF765FD192001
:104D2000FBF74AFE06460EB130465CE703980001E9
:104D30008849886007FB04F048604FF0FF30086046
:104D4000012048610020C86008610846FEF7ECFCBD
:104D500084480078002871D1451EFCF70DFC40E026
:104D6000DEE07B48406B00F48040A8B3ABEB08006A
:104D700020281ED2ABEB080000F0030018B9ABEB03
:104D80000800800803E0ABEB08008008401C01909D
:104D90004FF0000909E0DAF80000FEF749FD09F1DB
:104DA00001090AF1040A08F1040801988145F2D3C7
:104DB0000FE04FF0000905E05AF82900FEF738FD32
:104DC00009F10109B9F1080FF6D30AF1200A08F137
:104DD00020086FF0404504E0FFE70DB9042002E72A
:104DE0006D1E5B48406B40F21A3108400028B8D075
:104DF0000820FEF7C3FC20B10820FEF779FC042050
:104E0000F1E60220FEF7BAFC20B10220FEF770FCAA
:104E10000220E8E61020FEF7B1FC20B11020FEF7DA
:104E200067FC0520DFE64FF40070FEF7A7FC30B109
:104E30004FF40070FEF75CFC0720D4E62CE04FF442
:104E40008070FEF79BFC00B34348007838B14248BD
:104E50000078012803D040480078022815D10020AE
:104E60003E4908600C204860402088600020C860EF
:104E70004FF4806008610846FEF7B6FC0C20FBF793
:104E80009BFD06460EB13046ADE6FCF777FB40F2DF
:104E9000FF50FEF72DFC43E03248007801283FD157
:104EA00007FB04F110220498FEF7C8FC00202E49ED
:104EB000087001202D49087000202D4908702448F1
:104EC000C06B40F21A3108432149C8630846C06AE2
:104ED00040F00800C8624FF0FF3500E06D1E254825
:104EE000006800F4005008B9002DF7D11DB9FEF795
:104EF00097FE042077E64FF0FF3500E06D1E1C485A
:104F0000007820B91848007808B9002DF6D10DB9FD
:104F1000042068E61448007810B11348007862E66F
:104F200040F2FF50FEF7E4FB02A8FCF72FFB064619
:104F300003E002A8FCF72AFB06463EB99DF80800EC
:104F40000728F6D09DF808000628F2D030464AE639
:104F50000080014054030020600000204003002036
:104F600064000020680000206A0000206900002022
:104F70006B00002000040240704710B500F002F8FA
:104F800010BD00000CB5002001900090334800686F
:104F900040F480303149086000BF3048006800F4B8
:104FA000003000900198401C0190009818B90198B9
:104FB000B0F5A06FF1D12948006800F4003010B1BD
:104FC0000120009001E0002000900098012843D1CA
:104FD0002348006840F01000214908600846006836
:104FE00020F0030008600846006840F002000860F6
:104FF0001A484068194948600846406848600846B1
:10500000406840F4806048600846406820F47C10A6
:1050100048600846406840F4E81048600846006868
:1050200040F08070086000BF0C48006800F000701D
:105030000028F9D00948406820F00300074948607B
:105040000846406840F00200486000BF03484068DE
:1050500000F00C000828F9D10CBD0000001002403F
:10506000002002402DE9FF4F93B007460D461C4635
:10507000AA462046E21704EB5272D2102146E317EB
:1050800004EB5373DB10A4EBC3030BB1012300E06B
:1050900000231A44624302F0FF0B0C2C06D0102CA4
:1050A00004D0182C02D017B0BDE8F08F224601A919
:1050B0001598FCF7A5F900262FE001A810F8068046
:1050C0004FF0000923E008F0800030B11548028855
:1050D00029463846FCF74EFB07E0209828B91248CD
:1050E000028829463846FCF745FB4FEA48604FEAFC
:1050F0001068681C85B2A5EB0A00A04203D1554692
:10510000781C87B206E009F1010000F0FF09B9F14F
:10511000080FD8DB00BF701CC6B25E45CDDB00BFF8
:10512000C1E70000580000205A0000202DE9FE4F82
:1051300007460E4691469A46DDE90D4B0C9DB84652
:105140000296002001904CE0019870BB28788028DE
:1051500002DD0120019044E004EBD47108EB090268
:10516000A2EB6101B94202DA301986B247460298D1
:105170005044001BB04200DA36E028780D2804D1F4
:10518000301986B247466D1C07E0CDF800B02A788A
:10519000234631463846FEF791F86D1C204604EB55
:1051A000D07107EB61018FB21BE0FFE70020019097
:1051B00008EB0900001BB84202DA301986B24746F4
:1051C00002985044001BB04200DA0DE023462A4604
:1051D00031463846CDF800B0FFF744FFAD1C381912
:1051E00087B228780028AFD100BFBDE8FE8F10B588
:1051F0000446FBF79BFB4620FBF770FB2046FBF7C2
:105200006DFBFBF7ABFB10BD042808D14FF0E0218C
:10521000096941F004014FF0E022116107E04FF00D
:10522000E021096921F004014FF0E022116170478B
:105230007047000010B51348006840F001001149A4
:10524000086008464068104908400E494860084612
:1052500000680E4908400B4908600846006820F4C1
:10526000802008600846406820F4FE0048604FF443
:105270001F008860FFF781FE4FF00060044908605E
:1052800010BD0000001002400000FFF8FFFFF6FE16
:1052900008ED00E000B587B02C4800F0DDF84FF4D1
:1052A0008060FEF719F925208DF8040000208DF8A4
:1052B00005008DF8060001208DF8070001A8FEF713
:1052C000D3F801210520FEF733F901218803FEF709
:1052D0002FF94FF40070ADF8180018208DF81B005E
:1052E00003208DF81A0006A91948FBF7F1FF4FF4C7
:1052F0008060ADF8180004208DF81B0006A9144842
:10530000FBF7E6FF4FF4E13002900020ADF80C000F
:10531000ADF80E00ADF81000ADF814000C20ADF89B
:10532000120002A9094800F035F940F2255107485A
:1053300000F06EF8012240F22551044800F004F913
:105340000121024800F07CF807B000BD00380140A0
:105350000008014010B540F22551274800F0CAF876
:10536000002843D0244800F081F9244908700846F9
:1053700000782349234A12788854204800787B28F3
:1053800005D100201F49087001201F4908701E48E0
:10539000007801280BD11B480078401C194908707F
:1053A000164800787D2802D1022017490870164857
:1053B0000078022819D1002404E000201349085580
:1053C000601CC4B2282CF8DB012406E00C48015D07
:1053D000601E0E4A1154601CC4B20A480078401E78
:1053E000A042F3DC00200849087000BF40F22551BC
:1053F000014800F016F810BD00380140720000208E
:10540000E80500207100002075000020C400002085
:1054100001F40072B2F5007F00D100BFCA430280E0
:10542000704710B50022002340F66A14A14200D153
:1054300000BF0A1201249440A3B2DC43048010BDD3
:1054400021B1828942F40052828104E082894DF6C2
:10545000FF731A408281704710B504462048844289
:1054600009D101218803FEF773F800214FF4804031
:10547000FEF76EF832E01B48844209D1012148044E
:10548000FEF746F800214FF40030FEF741F825E022
:105490001548844209D101218804FEF739F800211A
:1054A0004FF48020FEF734F818E01048844209D108
:1054B0000121C804FEF72CF800214FF40020FEF76C
:1054C00027F80BE00A48844208D101210805FEF7BD
:1054D0001FF800214FF48010FEF71AF810BD0000ED
:1054E000003801400044004000480040004C0040AB
:1054F0000050004070B50246002400230025002023
:1055000040F66A16B14200D100BFC1F3421501F066
:105510001F03012606FA03F3012D02D196893340B9
:1055200006E0022D02D1168A334001E0968A33400C
:105530000C12012606FA04F41688344013B10CB19B
:10554000012000E0002070BDF0B5034600240026D5
:105550000025002040F66A17B94200D100BF184666
:10556000C1F3421401F01F06012707FA06F5012CCA
:1055700001D10C3004E0022C01D1103000E01430D5
:105580001AB107682F43076002E00768AF4307605E
:10559000F0BD00002DE9F04786B005460E46002418
:1055A000A24600BFA1460027B08900B100BF2F4628
:1055B0002C8A4CF6FF700440F08804432C82AC899E
:1055C0004EF6F3100440B0883189084371890843CE
:1055D0000443AC81AC8A4FF6FF400440B0890443D9
:1055E000AC8201A8FDF7C4FF1F48874202D1DDF855
:1055F00010A001E0DDF80CA0A88900F4004040B143
:105600000AEBCA0000EB0A1031684900B0FBF1F860
:1056100007E00AEBCA0000EB0A1031688900B0FB12
:10562000F1F86420B8FBF0F004012009642101FBCB
:105630001089A88900F4004040B1322000EBC90075
:10564000B0FBF1F000F00700044308E0322000EB6B
:1056500009106421B0FBF1F000F00F0004432C812D
:1056600006B0BDE8F0870000003801400146888898
:10567000C0F30800704700BFFEE730380A2801D2A7
:10568000012070470020704770B504460D46002089
:105690002071401EE0622946204601F0B3FD08B1AA
:1056A000032070BD94F82E1294F82F0241EA0020D6
:1056B0004AF65521884201D00220F2E794F86900A9
:1056C000010694F8680041EA004194F8670041EA55
:1056D000002094F86610084320F07F400D4988426E
:1056E00001D10020DDE794F88500010694F88400DC
:1056F00041EA004194F8830041EA002094F88210C6
:10570000084320F07F400349884201D10020C8E7C8
:105710000120C6E746415400024600E0521C1078C2
:1057200010B110788842F9D11078704770B50346EF
:105730000D46586A021D680A1E68B678B0FBF6F47A
:1057400000BF02CA09B9002070BD8C4200D202E03D
:10575000641A121DF5E700BF10682044F4E7024602
:10576000891E5069801E884201D8002070479378B6
:10577000906A01FB0300F9E7F0B50346087820F0D2
:105780004000401E00EB800707EBC006002201240A
:1057900000BF1148805C085C0F4FBF5C0F447F78EE
:1057A00040EA07250CB10020F0BD4FF6FF7085429E
:1057B00001D00020F8E7501C02460D28E9D30878F4
:1057C00000F0400028B124B133F8160008B10020E1
:1057D000EAE70120E8E70000908500080146002084
:1057E00002E04910421CD0B20129FAD170472DE9DC
:1057F000F04704468946B9F1000F06D1E76817B1B2
:105800006069B84215D8012713E04946204601F0E7
:1058100051FB0646022E02D20120BDE8F087701C23
:1058200008B93046F9E76069B04201D93046F4E77B
:105830004F463D4600BF6D1C6069A84204D8022552
:10584000BD4201D90020E8E72946204601F032FB9D
:10585000064606B909E0701C08B1012E01D1304698
:10586000DBE7BD42E7D10020D7E700BF6FF0704211
:105870002946204601F0FEFD8046B8F1000F08D110
:10588000B9F1000F05D02A464946204601F0F2FD45
:105890008046B8F1000F0BD1E5602069401C78B15B
:1058A0002069401E2061607940F00100607107E0CE
:1058B000B8F1010F02D14FF0FF3000E001200546A2
:1058C0002846AAE72DE9F34F83B081460498006883
:1058D000019002E00198401C0190019800782F2867
:1058E000F8D0019800785C28F4D0D9F81CA00025E5
:1058F0002F4600BF38467F1C01990C5C202C03DB2F
:105900002F2C01D05C2C00D12DE0FF2D03D30620DD
:1059100005B0BDE8F08FE4B2812C13DBE0B2FE28C5
:1059200010DC38467F1C01990E5C06EB042084B223
:10593000402E01DB7E2E05DD802E01DBFE2E01DDFB
:105940000620E5E70CB90620E2E7802C06DA2146BE
:105950006DA0FFF7E1FE08B10620D9E728466D1CCF
:105960002AF81040C6E700BF0198C11904980160E9
:10597000202C01DA042000E00020804608E0681EA8
:105980003AF81040202C02D02E2C00D002E06D1EE0
:10599000002DF4D100BF0DB90620B9E700202AF888
:1059A00015000B222021D9F8180001F021FC002756
:1059B00000E07F1C3AF817002028FAD03AF81700C8
:1059C0002E28F6D00FB148F0030800E06D1E25B177
:1059D000681E3AF810002E28F8D1002006460290E2
:1059E0004FF0080B00BF38467F1C3AF8104004B94E
:1059F0005BE0202C03D02E2C04D1AF4202D048F023
:105A00000308F0E70298584501D2AF4214D1BBF128
:105A10000B0F02D148F0030847E0AF4201D048F035
:105A20000308AF4200D940E02F46082002904FF013
:105A30000B0BB006060ED6E7802C01DB48F00208FF
:105A4000FF2C11DDABF101000299884204D848F027
:105A50000308CDF808B0C6E72212D9F8183002982A
:105A6000411C02911A5419E024B1214629A0FFF7E4
:105A700053FE18B15F2448F003080FE0412C04DB0B
:105A80005A2C02DC46F0020608E0612C06DB7A2C78
:105A900004DC46F00106A4F1200084B2D9F81830E5
:105AA0000298411C02911C549DE700BFD9F81800D0
:105AB0000078E52803D10520D9F818100870BBF14B
:105AC000080F01D1B006060E06F00C000C2803D01A
:105AD00006F00300032801D148F0020808F0020094
